{
  "_format": "hh-sol-artifact-1",
  "contractName": "Balt",
  "sourceName": "contracts/Balt.sol",
  "abi": [
    {
      "inputs": [],
      "stateMutability": "nonpayable",
      "type": "constructor"
    },
    {
      "anonymous": false,
      "inputs": [
        {
          "indexed": true,
          "internalType": "address",
          "name": "from",
          "type": "address"
        },
        {
          "indexed": true,
          "internalType": "address",
          "name": "to",
          "type": "address"
        },
        {
          "indexed": false,
          "internalType": "uint256",
          "name": "amount",
          "type": "uint256"
        }
      ],
      "name": "Transfer",
      "type": "event"
    },
    {
      "anonymous": false,
      "inputs": [
        {
          "indexed": true,
          "internalType": "address",
          "name": "transactioner",
          "type": "address"
        },
        {
          "indexed": true,
          "internalType": "address",
          "name": "from",
          "type": "address"
        },
        {
          "indexed": true,
          "internalType": "address",
          "name": "to",
          "type": "address"
        },
        {
          "indexed": false,
          "internalType": "uint256",
          "name": "amount",
          "type": "uint256"
        }
      ],
      "name": "TransferFromThirdParty",
      "type": "event"
    },
    {
      "inputs": [],
      "name": "NAME",
      "outputs": [
        {
          "internalType": "string",
          "name": "",
          "type": "string"
        }
      ],
      "stateMutability": "view",
      "type": "function"
    },
    {
      "inputs": [],
      "name": "SYMBOL",
      "outputs": [
        {
          "internalType": "string",
          "name": "",
          "type": "string"
        }
      ],
      "stateMutability": "view",
      "type": "function"
    },
    {
      "inputs": [],
      "name": "TOTAL_SUPPLY",
      "outputs": [
        {
          "internalType": "uint256",
          "name": "",
          "type": "uint256"
        }
      ],
      "stateMutability": "view",
      "type": "function"
    },
    {
      "inputs": [
        {
          "internalType": "address",
          "name": "allowedAddress",
          "type": "address"
        }
      ],
      "name": "approveThirdParty",
      "outputs": [],
      "stateMutability": "nonpayable",
      "type": "function"
    },
    {
      "inputs": [],
      "name": "getAddressBalance",
      "outputs": [
        {
          "internalType": "uint256",
          "name": "",
          "type": "uint256"
        }
      ],
      "stateMutability": "view",
      "type": "function"
    },
    {
      "inputs": [],
      "name": "getThirdParty",
      "outputs": [
        {
          "internalType": "address[]",
          "name": "",
          "type": "address[]"
        }
      ],
      "stateMutability": "view",
      "type": "function"
    },
    {
      "inputs": [],
      "name": "getTotalSupply",
      "outputs": [
        {
          "internalType": "uint256",
          "name": "",
          "type": "uint256"
        }
      ],
      "stateMutability": "pure",
      "type": "function"
    },
    {
      "inputs": [],
      "name": "owner",
      "outputs": [
        {
          "internalType": "address",
          "name": "",
          "type": "address"
        }
      ],
      "stateMutability": "view",
      "type": "function"
    },
    {
      "inputs": [
        {
          "internalType": "address",
          "name": "allowedAddressToRemove",
          "type": "address"
        }
      ],
      "name": "removeThirdParty",
      "outputs": [],
      "stateMutability": "nonpayable",
      "type": "function"
    },
    {
      "inputs": [
        {
          "internalType": "address",
          "name": "to",
          "type": "address"
        },
        {
          "internalType": "uint256",
          "name": "amount",
          "type": "uint256"
        }
      ],
      "name": "transfer",
      "outputs": [],
      "stateMutability": "nonpayable",
      "type": "function"
    },
    {
      "inputs": [
        {
          "internalType": "address",
          "name": "from",
          "type": "address"
        },
        {
          "internalType": "address",
          "name": "to",
          "type": "address"
        },
        {
          "internalType": "uint256",
          "name": "amount",
          "type": "uint256"
        }
      ],
      "name": "transferFrom",
      "outputs": [],
      "stateMutability": "nonpayable",
      "type": "function"
    }
  ],
  "bytecode": "0x608060405234801561001057600080fd5b506301312d00600160003373ffffffffffffffffffffffffffffffffffffffff1673ffffffffffffffffffffffffffffffffffffffff16815260200190815260200160002081905550336000806101000a81548173ffffffffffffffffffffffffffffffffffffffff021916908373ffffffffffffffffffffffffffffffffffffffff1602179055506112ce806100a86000396000f3fe608060405234801561001057600080fd5b50600436106100a95760003560e01c8063902d55a511610071578063902d55a51461013e578063a3f4df7e1461015c578063a9059cbb1461017a578063c4e41b2214610196578063ef113ab8146101b4578063f76f8d78146101d2576100a9565b806316f64436146100ae57806323b872dd146100ca5780636295e903146100e657806375eb2ad1146101025780638da5cb5b14610120575b600080fd5b6100c860048036038101906100c39190610ccb565b6101f0565b005b6100e460048036038101906100df9190610d2e565b61056f565b005b61010060048036038101906100fb9190610ccb565b610872565b005b61010a610915565b6040516101179190610d90565b60405180910390f35b61012861095c565b6040516101359190610dba565b60405180910390f35b610146610980565b6040516101539190610d90565b60405180910390f35b610164610988565b6040516101719190610e65565b60405180910390f35b610194600480360381019061018f9190610e87565b6109c1565b005b61019e610b58565b6040516101ab9190610d90565b60405180910390f35b6101bc610b64565b6040516101c99190610f85565b60405180910390f35b6101da610c2f565b6040516101e79190610e65565b60405180910390f35b6000600260003373ffffffffffffffffffffffffffffffffffffffff1673ffffffffffffffffffffffffffffffffffffffff1681526020019081526020016000208054905011610275576040517f08c379a000000000000000000000000000000000000000000000000000000000815260040161026c90611019565b60405180910390fd5b60005b600260003373ffffffffffffffffffffffffffffffffffffffff1673ffffffffffffffffffffffffffffffffffffffff1681526020019081526020016000208054905081101561056a578173ffffffffffffffffffffffffffffffffffffffff16600260003373ffffffffffffffffffffffffffffffffffffffff1673ffffffffffffffffffffffffffffffffffffffff168152602001908152602001600020828154811061032a57610329611039565b5b9060005260206000200160009054906101000a900473ffffffffffffffffffffffffffffffffffffffff1673ffffffffffffffffffffffffffffffffffffffff160361055d57600260003373ffffffffffffffffffffffffffffffffffffffff1673ffffffffffffffffffffffffffffffffffffffff1681526020019081526020016000206001600260003373ffffffffffffffffffffffffffffffffffffffff1673ffffffffffffffffffffffffffffffffffffffff168152602001908152602001600020805490506103fe9190611097565b8154811061040f5761040e611039565b5b9060005260206000200160009054906101000a900473ffffffffffffffffffffffffffffffffffffffff16600260003373ffffffffffffffffffffffffffffffffffffffff1673ffffffffffffffffffffffffffffffffffffffff168152602001908152602001600020828154811061048b5761048a611039565b5b9060005260206000200160006101000a81548173ffffffffffffffffffffffffffffffffffffffff021916908373ffffffffffffffffffffffffffffffffffffffff160217905550600260003373ffffffffffffffffffffffffffffffffffffffff1673ffffffffffffffffffffffffffffffffffffffff168152602001908152602001600020805480610522576105216110cb565b5b6001900381819060005260206000200160006101000a81549073ffffffffffffffffffffffffffffffffffffffff021916905590555061056c565b8080600101915050610278565b505b50565b600080600090505b600260008673ffffffffffffffffffffffffffffffffffffffff1673ffffffffffffffffffffffffffffffffffffffff16815260200190815260200160002080549050811015610681573373ffffffffffffffffffffffffffffffffffffffff16600260008773ffffffffffffffffffffffffffffffffffffffff1673ffffffffffffffffffffffffffffffffffffffff168152602001908152602001600020828154811061062957610628611039565b5b9060005260206000200160009054906101000a900473ffffffffffffffffffffffffffffffffffffffff1673ffffffffffffffffffffffffffffffffffffffff160361067457600191505b8080600101915050610577565b50806106c2576040517f08c379a00000000000000000000000000000000000000000000000000000000081526004016106b99061116c565b60405180910390fd5b81600160008673ffffffffffffffffffffffffffffffffffffffff1673ffffffffffffffffffffffffffffffffffffffff168152602001908152602001600020541015610744576040517f08c379a000000000000000000000000000000000000000000000000000000000815260040161073b906111d8565b60405180910390fd5b81600160008673ffffffffffffffffffffffffffffffffffffffff1673ffffffffffffffffffffffffffffffffffffffff16815260200190815260200160002060008282546107939190611097565b9250508190555081600160008573ffffffffffffffffffffffffffffffffffffffff1673ffffffffffffffffffffffffffffffffffffffff16815260200190815260200160002060008282546107e991906111f8565b925050819055508273ffffffffffffffffffffffffffffffffffffffff168473ffffffffffffffffffffffffffffffffffffffff163373ffffffffffffffffffffffffffffffffffffffff167fa7562674952466b81d6b80896fabd9f7def3432a23054a9b7092e28e33fffde6856040516108649190610d90565b60405180910390a450505050565b600260003373ffffffffffffffffffffffffffffffffffffffff1673ffffffffffffffffffffffffffffffffffffffff168152602001908152602001600020819080600181540180825580915050600190039060005260206000200160009091909190916101000a81548173ffffffffffffffffffffffffffffffffffffffff021916908373ffffffffffffffffffffffffffffffffffffffff16021790555050565b6000600160003373ffffffffffffffffffffffffffffffffffffffff1673ffffffffffffffffffffffffffffffffffffffff16815260200190815260200160002054905090565b60008054906101000a900473ffffffffffffffffffffffffffffffffffffffff1681565b6301312d0081565b6040518060400160405280600481526020017f42616c740000000000000000000000000000000000000000000000000000000081525081565b80600160003373ffffffffffffffffffffffffffffffffffffffff1673ffffffffffffffffffffffffffffffffffffffff168152602001908152602001600020541015610a43576040517f08c379a0000000000000000000000000000000000000000000000000000000008152600401610a3a90611278565b60405180910390fd5b80600160003373ffffffffffffffffffffffffffffffffffffffff1673ffffffffffffffffffffffffffffffffffffffff1681526020019081526020016000206000828254610a929190611097565b9250508190555080600160008473ffffffffffffffffffffffffffffffffffffffff1673ffffffffffffffffffffffffffffffffffffffff1681526020019081526020016000206000828254610ae891906111f8565b925050819055508173ffffffffffffffffffffffffffffffffffffffff163373ffffffffffffffffffffffffffffffffffffffff167fddf252ad1be2c89b69c2b068fc378daa952ba7f163c4a11628f55a4df523b3ef83604051610b4c9190610d90565b60405180910390a35050565b60006301312d00905090565b6060600260003373ffffffffffffffffffffffffffffffffffffffff1673ffffffffffffffffffffffffffffffffffffffff168152602001908152602001600020805480602002602001604051908101604052809291908181526020018280548015610c2557602002820191906000526020600020905b8160009054906101000a900473ffffffffffffffffffffffffffffffffffffffff1673ffffffffffffffffffffffffffffffffffffffff1681526020019060010190808311610bdb575b5050505050905090565b6040518060400160405280600381526020017f426c74000000000000000000000000000000000000000000000000000000000081525081565b600080fd5b600073ffffffffffffffffffffffffffffffffffffffff82169050919050565b6000610c9882610c6d565b9050919050565b610ca881610c8d565b8114610cb357600080fd5b50565b600081359050610cc581610c9f565b92915050565b600060208284031215610ce157610ce0610c68565b5b6000610cef84828501610cb6565b91505092915050565b6000819050919050565b610d0b81610cf8565b8114610d1657600080fd5b50565b600081359050610d2881610d02565b92915050565b600080600060608486031215610d4757610d46610c68565b5b6000610d5586828701610cb6565b9350506020610d6686828701610cb6565b9250506040610d7786828701610d19565b9150509250925092565b610d8a81610cf8565b82525050565b6000602082019050610da56000830184610d81565b92915050565b610db481610c8d565b82525050565b6000602082019050610dcf6000830184610dab565b92915050565b600081519050919050565b600082825260208201905092915050565b60005b83811015610e0f578082015181840152602081019050610df4565b60008484015250505050565b6000601f19601f8301169050919050565b6000610e3782610dd5565b610e418185610de0565b9350610e51818560208601610df1565b610e5a81610e1b565b840191505092915050565b60006020820190508181036000830152610e7f8184610e2c565b905092915050565b60008060408385031215610e9e57610e9d610c68565b5b6000610eac85828601610cb6565b9250506020610ebd85828601610d19565b9150509250929050565b600081519050919050565b600082825260208201905092915050565b6000819050602082019050919050565b610efc81610c8d565b82525050565b6000610f0e8383610ef3565b60208301905092915050565b6000602082019050919050565b6000610f3282610ec7565b610f3c8185610ed2565b9350610f4783610ee3565b8060005b83811015610f78578151610f5f8882610f02565b9750610f6a83610f1a565b925050600181019050610f4b565b5085935050505092915050565b60006020820190508181036000830152610f9f8184610f27565b905092915050565b7f446f6e2774206861766520616c6c6f7765642061646472657373657320746f2060008201527f72656d6f76650000000000000000000000000000000000000000000000000000602082015250565b6000611003602683610de0565b915061100e82610fa7565b604082019050919050565b6000602082019050818103600083015261103281610ff6565b9050919050565b7f4e487b7100000000000000000000000000000000000000000000000000000000600052603260045260246000fd5b7f4e487b7100000000000000000000000000000000000000000000000000000000600052601160045260246000fd5b60006110a282610cf8565b91506110ad83610cf8565b92508282039050818111156110c5576110c4611068565b5b92915050565b7f4e487b7100000000000000000000000000000000000000000000000000000000600052603160045260246000fd5b7f53656e646572206973206e6f7420616c6c6f77656420746f206d616b6520746860008201527f6973207472616e73616374696f6e000000000000000000000000000000000000602082015250565b6000611156602e83610de0565b9150611161826110fa565b604082019050919050565b6000602082019050818103600083015261118581611149565b9050919050565b7f4e6f7420656e6f756768206d6f6e657920696e2066726f6d206163636f756e74600082015250565b60006111c2602083610de0565b91506111cd8261118c565b602082019050919050565b600060208201905081810360008301526111f1816111b5565b9050919050565b600061120382610cf8565b915061120e83610cf8565b925082820190508082111561122657611225611068565b5b92915050565b7f4e6f7420656e6f75676820746f6b656e73000000000000000000000000000000600082015250565b6000611262601183610de0565b915061126d8261122c565b602082019050919050565b6000602082019050818103600083015261129181611255565b905091905056fea2646970667358221220f6f01b38a87dd6362f28bd6bb15417d51fe0f6ad3fc9508f183e3cb32ec4f35264736f6c63430008180033",
  "linkReferences": {},
  "deployedLinkReferences": {}
}